S01700007370692D6D61737465722D64656D6F2E7372656336
S113000080240020150100000D0200000D020000F4
S113001000000000000000000000000000000000DC
S11300200000000000000000000000000D020000BD
S113003000000000000000000D0200000D0200009E
S11300400D0200000D0200000D0200000D02000070
S11300500D0200000D0200000D0200000D02000060
S11300600D0200000D0200000D0200000D02000050
S11300700D0200000D0200000D0200000D02000040
S11300800D0200000D020000150500000D02000025
S11300900D0200000D0200000D0200000D02000020
S11300A00D0200000D0200000D0200000D02000010
S11300B00000000010B5064C2378002B07D1054B37
S11300C0002B02D0044800E000BF0123237010BDC0
S11300D0340400200000000070070000084B10B535
S11300E0002B03D00749084800E000BF0748036815
S11300F0002B00D110BD064B002BFBD09847F9E72D
S113010000000000380400207007000070070000A1
S11301100000000080B582B000AF2F4B7B602F4BF6
S11301203B607A683B689A420CD007E03B681A1D32
S11301303A607A68111D796012681A603A68284B2F
S11301409A42F3D3274B3B6004E03B681A1D3A60A4
S113015000221A603A68244B9A42F6D3234B7B6000
S1130160234B7A68FF218A439A60224A90235B00DA
S11301700221D150204AD37803218B43191C022336
S11301800B43D3701C4AD3780C218B43191C0823CE
S11301900B43D370194A937B30218B43191C2023C2
S11301A00B439373154A937B0C218B43191C08232F
S11301B00B439373114A937B03218B43191C022332
S11301C00B4393730E4A536880210B4353600D4BCA
S11301D098470D4B9847FEE7700700000000002089
S11301E034040020340400207C04002000000000BB
S11301F000ED00E000700041005000410048004163
S113020000400041A90500007502000080B500AF60
S1130210FEE7000080B500AF054A136A05490B40AC
S11302201362054B054A1A60C046BD4680BDC046F0
S113023000080040FFFCFFFF0000002000127A00CD
S113024080B500AF0A4998228023DB058B50084B08
S1130250802292019A61064988228023DB058B5013
S1130260034B802292019A60C046BD4680BDC046C1
S11302700044004180B582B000AF3F4B98473F4BEC
S113028098473F4B98473F4B98473F4B00221A7083
S11302903E4B00221A7000237B603D4B1B687A683A
S11302A09A42FAD83B499C228023DB058B50384B79
S11302B01B6864337B60374B802292015A610620AD
S11302C0354B984703001A00304B1A70314B80228B
S11302D092019A612F4B802292015A6101202E4B88
S11302E0984703001A00294B1A7000202A4B98479C
S11302F003001A00254B1A70264B802292019A6142
S1130300244B802292015A610520234B9847030015
S11303101A001E4B1A70FF201F4B984703001A0047
S11303201A4B1A701B4B802292019A61194B80223E
S113033092015A619F20184B984703001A00134BEF
S11303401A70FF20144B984703001A000F4B1A70C1
S1130350FF20114B984703001A000C4B1A70FF2022
S11303600D4B984703001A00084B1A70094B802262
S113037092019A6191E7C046150200004102000013
S1130380390500009D03000054040020550400209A
S113039050040020004400419904000080B582B05C
S11303A000AFC046344BDB699B07DB0FDBB2002B8D
S11303B0F8D1314A136802218B431360C0462E4B97
S11303C0DB69DB07DB0FDBB2002BF8D12A4A1368A9
S11303D001210B431360C046274B1B68DB07DB0F6F
S11303E0DBB2002BF8D1C046234BDB69DB07DB0F04
S11303F0DBB2002BF8D1204BDB699B07DB0FDBB2B0
S1130400002BF1D11D4AA8231D49D1501B4AA82312
S11304101C49D1501C4B1C4A126A80210A431A629F
S11304201A4B1B4A5A80C046184B5B781B06DB0FDD
S1130430DBB2002BF8D1104B164A1A600E4B802207
S113044092025A60BB1D4F221A800B4ABB1D1B88A7
S1130450DBB21373084B084A126802210A431A607C
S1130460C046054BDB699B07DB0FDBB2002BF8D1E1
S1130470C046BD4602B080BD001C0042004400419D
S1130480010003D2C00001D300040040000C00406E
S1130490194000000C00010080B582B000AF0200DA
S11304A0FB1D1A70C0460D4B1B7EDB07DB0FDBB256
S11304B0002BF8D0094BFA1D12789A62C046074BFC
S11304C01B7E5B07DB0FDBB2002BF8D0034B9B6A70
S11304D0DBB21800BD4602B080BDC046001C00421D
S11304E080B582B000AF0200FB1D1A70FB1D1B78A3
S11304F07F2B09D8064BFA1D127811001F220A40DF
S1130500012191400A001A60C046BD4602B080BD78
S113051000E100E080B500AF054B01229A73054B62
S11305201B685A1C034B1A60C046BD4680BDC046BA
S1130530002C00425004002080B500AF134B134A36
S1130540126A802109010A431A62114B114A5A8026
S1130550114B124A1A80104B114A1A830E4B002277
S11305601A820D4B01229A730B4B01225A731220EB
S11305700C4B9847084A084B1B889BB202210B433B
S11305809BB21380C046BD4680BDC04600040040F7
S1130590000C00401B400000002C00422022000000
S11305A0EE4D0000E104000070B50D4E0D4D002429
S11305B0AD1BAD1005D0A300F35801349847A542F4
S11305C0F9D100F0C3F8084E084D0024AD1BAD105E
S11305D005D0A300F35801349847A542F9D170BD62
S11305E05807000058070000580700006007000083
S11305F0034B10B5002B02D0024800F005F810BDE3
S1130600000000001906000010B5010000230022BC
S1130610002000F01FF810BD70B5094B094CE41A16
S1130620A41009D0084AA518AD00ED182B68013CA8
S11306309847043D002CF9D100F092F870BDC046F3
S11306406C07000070070000FFFFFF3F7047C046C3
S11306507047C046F0B54E464546DE465746E0B5BF
S1130660364D83B00600286898460F009146FFF780
S1130670EDFF334B1C68A4235B00E058002852D0E4
S113068043681F2B13DC5A1C0192002E28D1019AB7
S113069002339B0042601F502868FFF7D9FF0020F7
S11306A003B03CBC90469946A246AB46F0BD254BF0
S11306B0002B3DD0C820400000E000BF002837D008
S11306C0A42200235200A15843600160A05040328C
S11306D0835004328350013301930023002ED6D07B
S11306E09A00924682444A46882154466250C42263
S11306F05200914681444A468739994012688B4694
S11307000A4394464A466146116084224146520097
S1130710A150022EBBD102005C468D32FF3211681B
S11307200C431460B3E720004D30FF30E050A7E7DE
S11307302868FFF78DFF01204042B1E73004002014
S1130740480700000000000008000020F8B5C0467B
S1130750F8BC08BC9E467047F1050000DD000000AF
S1130760F8B5C046F8BC08BC9E467047B50000000A
S113077000127A000000000000000000F4020020D3
S11307805C030020C40300200000000000000000FF
S11307900000000000000000000000000000000055
S11307A00000000000000000000000000000000045
S11307B00000000000000000000000000000000035
S11307C00000000000000000000000000000000025
S11307D00000000000000000000000000000000015
S11307E00000000000000000000000000000000005
S11307F000000000000000000000000000000000F5
S113080000000000000000000000000000000000E4
S113081000000000000000000000000000000000D4
S113082001000000000000000E33CDAB34126DE671
S1130830ECDE05000B0000000000000000000000DA
S113084000000000000000000000000000000000A4
S11308500000000000000000000000000000000094
S11308600000000000000000000000000000000084
S11308700000000000000000000000000000000074
S1070BA058040020D1
S9030000FC
